:020000040800F2
:1000000000A00020B1190008991700089F170008E8
:10001000A5170008AB170008B11700080000000082
:10002000000000000000000000000000B7170008FA
:10003000C517000800000000D3170008E1170008EA
:10004000011A0008011A0008011A0008011A000824
:10005000011A0008011A0008011A0008011A000814
:10006000011A0008011A0008011A0008011A000804
:10007000011A0008011A0008011A0008011A0008F4
:10008000011A0008011A0008011A0008011A0008E4
:10009000ED170008011A0008011A0008011A0008EB
:1000A000011A0008011A0008011A0008011A0008C4
:1000B000011A0008011A0008011A0008011A0008B4
:1000C000011A0008011A0008011A0008011A0008A4
:1000D000011A0008011A0008011A0008011A000894
:1000E000011A0008011A0008011A0008011A000884
:1000F000011A0008011A0008011A0008011A000874
:10010000000000000000000000000000011A0008CC
:10011000011A0008011A0008011A0008011A000853
:10012000011A0008011A0008011A0008011A000843
:10013000011A0008011A0008000000000000000079
:10014000011A0008011A0008011A00080000000046
:10015000000000000000000000000000000000009F
:100160000000000000000000011A0008011A000849
:10017000011A00080000000000000000000000005C
:0801800000000000011A000854
:1001900010B5054C237833B9044B13B10448AFF3C1
:1001A00000800123237010BD5003002000000000D8
:1001B00014E1000808B5034B1BB103490348AFF332
:1001C000008008BD000000005403002014E1000876
:1001D000034613F8012B002AFBD1181A0138704787
:1001E00001F0FF01102A2BDB10F0070F08D010F8E8
:1001F000013B013A8B422DD010F0070F42B3F6D1EC
:10020000F0B441EA012141EA014122F007047FF004
:1002100000070023F0E80256083C85EA010586EA5B
:10022000010685FA47F5A3FA87F586FA47F6A5FA97
:1002300087F68EB9EED1F0BC01F0FF0102F00702A3
:1002400032B110F8013B013A83EA010313B1F8D14E
:100250000020704701387047002D06BF354603382F
:10026000073815F0010F07D1013015F4807F02BF68
:10027000013015F4C03F0130F0BC0138704700BFB9
:1002800081F0004102E000BF83F0004330B54FEA47
:1002900041044FEA430594EA050F08BF90EA020FB4
:1002A0001FBF54EA000C55EA020C7FEA645C7FEA47
:1002B000655C00F0E2804FEA5454D4EB5555B8BF6A
:1002C0006D420CDD2C4480EA020281EA030382EADB
:1002D000000083EA010180EA020281EA0303362D6D
:1002E00088BF30BD11F0004F4FEA01314FF4801C40
:1002F0004CEA113102D0404261EB410113F0004F52
:100300004FEA03334CEA133302D0524263EB430308
:1003100094EA050F00F0A780A4F10104D5F1200EA6
:100320000DDB02FA0EFC22FA05F2801841F1000101
:1003300003FA0EF2801843FA05F359410EE0A5F1D5
:1003400020050EF1200E012A03FA0EFC28BF4CF006
:10035000020C43FA05F3C01851EBE37101F00045BC
:1003600007D54FF0000EDCF1000C7EEB00006EEBC9
:100370000101B1F5801F1BD3B1F5001F0CD3490853
:100380005FEA30004FEA3C0C04F101044FEA4452AA
:1003900012F5800F80F09A80BCF1004F08BF5FEA31
:1003A000500C50F1000041EB045141EA050130BD11
:1003B0005FEA4C0C404141EB0101013C28BFB1F523
:1003C000801FE9D291F0000F04BF01460020B1FA6E
:1003D00081F308BF2033A3F10B03B3F120020CDA41
:1003E0000C3208DD02F1140CC2F10C0201FA0CF01F
:1003F00021FA02F10CE002F11402D8BFC2F1200C84
:1004000001FA02F120FA0CFCDCBF41EA0C01904039
:10041000E41AA2BF01EB0451294330BD6FEA040482
:100420001F3C1CDA0C340EDC04F11404C4F120026D
:1004300020FA04F001FA02F340EA030021FA04F37F
:1004400045EA030130BDC4F10C04C4F1200220FAD6
:1004500002F001FA04F340EA0300294630BD21FA14
:1004600004F0294630BD94F0000F83F4801306BFDA
:1004700081F480110134013D4EE77FEA645C18BFCE
:100480007FEA655C29D094EA050F08BF90EA020F65
:1004900005D054EA000C04BF1946104630BD91EA5D
:1004A000030F1EBF0021002030BD5FEA545C05D160
:1004B0004000494128BF41F0004130BD14F580049F
:1004C0003CBF01F5801130BD01F0004545F0FE4113
:1004D00041F470014FF0000030BD7FEA645C1ABF48
:1004E000194610467FEA655C1CBF0B46024650EA7F
:1004F000013406BF52EA033591EA030F41F40021AB
:1005000030BD00BF90F0000F04BF0021704730B530
:100510004FF4806404F132044FF000054FF0000105
:1005200050E700BF90F0000F04BF0021704730B5C6
:100530004FF4806404F1320410F0004548BF40429B
:100540004FF000013EE700BF42004FEAE2014FEAF0
:1005500031014FEA02701FBF12F07F4393F07F4FCB
:1005600081F06051704732F07F4208BF704793F0CE
:100570007F4F04BF41F40021704730B54FF46074E1
:1005800001F0004521F000411CE700BF50EA0102E4
:1005900008BF704730B54FF000050AE050EA01028D
:1005A00008BF704730B511F0004502D5404261EBFD
:1005B00041014FF4806404F132045FEA915C3FF43E
:1005C000D8AE4FF003025FEADC0C18BF03325FEADB
:1005D000DC0C18BF033202EBDC02C2F1200300FA8C
:1005E00003FC20FA02F001FA03FE40EA0E0021FAB1
:1005F00002F11444BDE600BF70B54FF0FF0C4CF49F
:10060000E06C1CEA11541DBF1CEA135594EA0C0F50
:1006100095EA0C0F00F0DEF82C4481EA030621EA8B
:100620004C5123EA4C5350EA013518BF52EA0335C6
:1006300041F4801143F4801338D0A0FB02CE4FF078
:100640000005E1FB02E506F00042E0FB03E54FF0A8
:100650000006E1FB03569CF0000F18BF4EF0010EA0
:10066000A4F1FF04B6F5007F64F5407404D25FEA9C
:100670004E0E6D4146EB060642EAC62141EA55514F
:100680004FEAC52040EA5E504FEACE2EB4F1FD0C91
:1006900088BFBCF5E06F1ED8BEF1004F08BF5FEA0F
:1006A000500E50F1000041EB045170BD06F00046C1
:1006B00046EA010140EA020081EA0301B4EB5C046E
:1006C000C2BFD4EB0C0541EA045170BD41F4801166
:1006D0004FF0000E013C00F3AB8014F1360FDEBF8B
:1006E000002001F0004170BDC4F10004203C35DA67
:1006F0000C341BDC04F11404C4F1200500FA05F3EA
:1007000020FA04F001FA05F240EA020001F000428A
:1007100021F0004110EBD37021FA04F642EB060100
:100720005EEA430E08BF20EAD37070BDC4F10C042A
:10073000C4F1200500FA04F320FA05F001FA04F2EE
:1007400040EA020001F0004110EBD37041F10001DA
:100750005EEA430E08BF20EAD37070BDC4F12005E5
:1007600000FA05F24EEA020E20FA04F301FA05F24D
:1007700043EA020321FA04F001F0004121FA04F2F5
:1007800020EA020000EBD3705EEA430E08BF20EAC5
:10079000D37070BD94F0000F0FD101F000464000FF
:1007A00041EB010111F4801F08BF013CF7D041EA81
:1007B000060195F0000F18BF704703F00046520085
:1007C00043EB030313F4801F08BF013DF7D043EA56
:1007D0000603704794EA0C0F0CEA135518BF95EA0C
:1007E0000C0F0CD050EA410618BF52EA4306D1D193
:1007F00081EA030101F000414FF0000070BD50EAB2
:10080000410606BF1046194652EA430619D094EA3B
:100810000C0F02D150EA013613D195EA0C0F05D125
:1008200052EA03361CBF104619460AD181EA030179
:1008300001F0004141F0FE4141F470014FF0000031
:1008400070BD41F0FE4141F4780170BD70B54FF0CC
:10085000FF0C4CF4E06C1CEA11541DBF1CEA13554C
:1008600094EA0C0F95EA0C0F00F0A7F8A4EB05042E
:1008700081EA030E52EA03354FEA013100F0888025
:100880004FEA03334FF0805545EA131343EA1263EE
:100890004FEA022245EA111545EA10654FEA0026A3
:1008A0000EF000419D4208BF964244F1FD0404F55C
:1008B000407402D25B084FEA3202B61A65EB0305B8
:1008C0005B084FEA32024FF480104FF4002CB6EB75
:1008D000020E75EB030E22BFB61A754640EA0C00F5
:1008E0005B084FEA3202B6EB020E75EB030E22BF35
:1008F000B61A754640EA5C005B084FEA3202B6EB76
:10090000020E75EB030E22BFB61A754640EA9C0034
:100910005B084FEA3202B6EB020E75EB030E22BF04
:10092000B61A754640EADC0055EA060E18D04FEAC2
:10093000051545EA16754FEA06164FEAC30343EA62
:1009400052734FEAC2025FEA1C1CC0D111F4801F2F
:100950000BD141EA00014FF000004FF0004CB6E728
:1009600011F4801F04BF01430020B4F1FD0C88BFC7
:10097000BCF5E06F3FF6AFAEB5EB030C04BFB6EBD2
:10098000020C5FEA500C50F1000041EB045170BDC5
:100990000EF0004E4EEA113114EB5C04C2BFD4EBF2
:1009A0000C0541EA045170BD41F480114FF0000E76
:1009B000013C90E645EA060E8DE60CEA135594EAF2
:1009C0000C0F08BF95EA0C0F3FF43BAF94EA0C0FF5
:1009D0000AD150EA01347FF434AF95EA0C0F7FF46A
:1009E00025AF104619462CE795EA0C0F06D152EABE
:1009F00003353FF4FDAE1046194622E750EA4106A2
:100A000018BF52EA43067FF4C5AE50EA41047FF4B2
:100A10000DAF52EA43057FF4EBAE12E74FF0FF3C17
:100A200006E000BF4FF0010C02E000BF4FF0010CE8
:100A30004DF804CD4FEA410C7FEA6C5C4FEA430C61
:100A400018BF7FEA6C5C1BD001B050EA410C0CBFB0
:100A500052EA430C91EA030F02BF90EA020F002012
:100A6000704710F1000F91EA030F58BF994208BF79
:100A700090422CBFD8176FEAE37040F00100704736
:100A80004FEA410C7FEA6C5C02D150EA013C07D18D
:100A90004FEA430C7FEA6C5CD6D152EA033CD3D0D8
:100AA0005DF8040B704700BF8446104662468C46D2
:100AB0001946634600E000BF01B5FFF7B7FF002805
:100AC00048BF10F1000F01BD4DF808EDFFF7F4FF2E
:100AD0000CBF012000205DF808FB00BF4DF808EDB9
:100AE000FFF7EAFF34BF012000205DF808FB00BFDC
:100AF0004DF808EDFFF7E0FF94BF012000205DF8FE
:100B000008FB00BF4DF808EDFFF7CEFF94BF0120B2
:100B100000205DF808FB00BF4DF808EDFFF7C4FFAB
:100B200034BF012000205DF808FB00BF4FEA410CF4
:100B30007FEA6C5C02D150EA013C0AD14FEA430CD7
:100B40007FEA6C5C02D152EA033C02D14FF0000014
:100B500070474FF0010070474FEA410212F5001252
:100B600015D211D56FF47873B3EB625212D94FEAF4
:100B7000C12343F0004343EA505311F0004F23FADE
:100B800002F018BF404270474FF00000704750EA33
:100B9000013005D111F0004008BF6FF000407047F0
:100BA0004FF00000704700BF4FEA4102B2F1E0434E
:100BB00024BFB3F5001CDCF1FE5C0DD901F0004C44
:100BC0004FEAC0024CEA5070B2F1004F40EB830094
:100BD00008BF20F00100704711F0804F21D113F1C0
:100BE0003872BCBF01F00040704741F480114FEAF9
:100BF0005252C2F11802C2F1200C10FA0CF320FA82
:100C000002F018BF40F001004FEAC1234FEAD3239E
:100C100003FA0CFC40EA0C0023FA02F34FEA430308
:100C2000CCE77FEA625307D150EA01331EBF4FF091
:100C3000FE4040F44000704701F0004040F0FE40AC
:100C400040F40000704700BF80B586B004AF034693
:100C5000FB710B46BB7113467B71FB795B00FB712B
:100C6000FB7999B2BB799AB20A23029301230193CB
:100C70007B1D00930123044801F09AFA03461846AD
:100C80000837BD4680BD00BF9C05002080B586B0FA
:100C900004AF3A601A460346FB710B46BB7113461C
:100CA0007B717B79012B06D9FB79192B03D1BB7999
:100CB00063F07F03BB71FB795B00FB71FB7999B239
:100CC000BB7998B27B799BB27A79029201933B68A7
:100CD000009301230246034801F07EFB00BF083762
:100CE000BD4680BD9C05002080B500AF0A2000F005
:100CF000EFFE73224F211E20FFF7A6FF642000F0B5
:100D0000E7FE272220211920FFF79EFF88222321BA
:100D10001920FFF799FF472220211920FFF794FFA0
:100D2000102223211920FFF78FFF00BF80BD000094
:100D300080B485B000AF87ED030AC7ED020A87EDE6
:100D4000011AC7F800C0D7ED037AFDEEE77A17EE77
:100D5000903A002BB8BF5B4207EE903AF8EEE77A84
:100D6000C7ED037AD7ED027AFDEEE77A17EE903AF7
:100D7000002BB8BF5B4207EE903AF8EEE77AC7ED7A
:100D8000027AD7ED017AFDEEE77A17EE903A002B62
:100D9000B8BF5B4207EE903AF8EEE77AC7ED017A0A
:100DA00097ED037AD7ED027AB4EEE77AF1EE10FA16
:100DB0000BDD97ED037AD7ED017AB4EEE77AF1EE29
:100DC00010FA11DD4FF000030FE097ED027AD7ED36
:100DD000017AB4EEE77AF1EE10FA02DD4FF07E53BD
:100DE00003E04FF0804300E0044B07EE903AB0EE92
:100DF000670A1437BD465DF8047B7047000080BF6A
:100E00002DE9B043DEB006AF07F5BC73C7F8183163
:100E100000F0F8FD00F046FA00F070FB00F0A2FAD6
:100E200000F0DEFA00F01AFB08F0FAFDCE4804F0FC
:100E30003BFFCD4B1B686FF001021A61CB4B1B6867
:100E40001A68CA4B1B6842F001021A60FFF74CFF98
:100E50004AF6AB23A7F80C310023C7F85C31002316
:100E6000C7F858310023C7F854310023C7F8503170
:100E70004FF0FF33C7F84C314FF00003C7F848314B
:100E80004FF00003C7F83C310023C7F83831002386
:100E9000C7F834310023C7F844310023C7F8403184
:100EA0000A2000F015FE01214FF0904001F0C0F83B
:100EB0000346002B36D0D7F850310133C7F85031F4
:100EC000D7F85031032B2DDD0023C7F85031002314
:100ED000C7F844310023C7F840310023C7F85C311C
:100EE0000023C7F858310023C7F854314FF0FF33BF
:100EF000C7F84C3100224FF480419D4801F0B0F812
:100F000000224FF400519A4801F0AAF800224FF451
:100F10008051974801F0A4F800224FF400619448F2
:100F200001F09EF8D7F85031012B40F06281012288
:100F30004FF480518E4801F093F8D7F84C310133CB
:100F4000C7F84C31D7F84C311BB2A7F80E3107F572
:100F50008572012329211920FFF798FE07F20B1251
:100F6000012328211920FFF791FE97F90A311B026E
:100F70001AB297F90B311BB2DBB21BB213431BB28F
:100F8000A7F80E31B7F90E31DB101BB207EE903A1D
:100F9000B8EEE77ADFED776AC7EE267AC7ED4A7AD0
:100FA00007F5847201232B211920FFF76FFE07F24A
:100FB000091201232A211920FFF768FE97F9083149
:100FC0001B021AB297F909311BB2DBB21BB21343F1
:100FD0001BB2A7F81031B7F91031DB101BB207EEC6
:100FE000903AB8EEE77ADFED636AC7EE267AC7ED8E
:100FF000497A07F5837201232D211920FFF746FE58
:1010000007F2071201232C211920FFF73FFE97F961
:1010100006311B021AB297F907311BB2DBB21BB2C1
:1010200013431BB2A7F81231B7F91231DB101BB210
:1010300007EE903AB8EEE77ADFED4E6AC7EE267A11
:10104000C7ED487AD7F84831C7F83C31D7F82801BE
:10105000FFF77AFA02460B469FED411B43EC102B3B
:101060000CF070F855EC104BD7F82401FFF76CFA30
:1010700002460B469FED3A1B43EC102B0CF062F836
:1010800053EC102B20462946FFF700F902460B4689
:1010900014461D46D7F82001FFF756FA02460B46C4
:1010A0009FED2F1B43EC102B0CF04CF853EC102B46
:1010B00020462946FFF7EAF802460B4643EC172B79
:1010C000B0EE470AF0EE670A0CF0EAF853EC102B8A
:1010D00010461946FFF768FD0346C7F8483107F583
:1010E0008C739C4697ED481AD7ED490A97ED4A0A4A
:1010F000FFF71EFEF0EE407AFDEEE77A17EE903A2B
:10110000C7F83431D7F83431002B12D197ED4F7A2C
:10111000D7ED527A77EE677AB6EE007AF4EEC77AB8
:10112000F1EE10FA3EDDD7F85C310133C7F85C31DF
:1011300038E0D7F83431012B1ED197ED4F7AD7ED37
:10114000527A77EE677AB6EE007AF4EEC77AF1EE6D
:1011500010FA27DDD7F858310133C7F8583121E0AC
:101160000000000000000040E80500209C05002071
:101170000010004800007A44D7F83431022B11D116
:1011800097ED4F7AD7ED527A77EE677AB6EE007A1E
:10119000F4EEC77AF1EE10FA04DDD7F854310133DA
:1011A000C7F85431D7F82801FFF7CEF904460D46A9
:1011B000D7F82401FFF7C8F980468946D7F82001FF
:1011C000FFF7C2F902460B46381DCDE90423CDE9ED
:1011D0000289CDE90045D7F84C212E4909F086FD5A
:1011E000C7F81C013B1DD7F81C11184608F0D6FCA7
:1011F00046E0D7F85031022B22D1D7F84031002BEE
:101200003EDC01224FF40051234800F029FF381D35
:10121000D7F854310093D7F85831D7F85C211F49DB
:1012200009F064FDC7F82C013B1DD7F82C111846B6
:1012300008F0B4FCD7F840310133C7F840311FE063
:10124000D7F85031032B1BD101224FF480411248B3
:1012500000F006FFD7F84431002B11DC3B1D10498C
:10126000184609F043FDC7F830013B1DD7F830118F
:10127000184608F093FCD7F844310133C7F84431DD
:1012800000BF01214FF0904000F0D2FE0346002B3A
:10129000F7D105E630E10008001000486CE10008D5
:1012A000A4E1000880B59EB000AF07F150032822EA
:1012B0000021184609F0A8F807F13C0300221A6043
:1012C0005A609A60DA601A613B463C220021184657
:1012D00009F09AF803233B654FF4A0237B650023B4
:1012E000BB6501233B6610237B660223FB664FF43C
:1012F00080333B674FF4E0137B6707F150031846D8
:1013000003F032F90346002B01D000F075F90F23EA
:10131000FB6302233B6400237B644FF48063BB6464
:101320000023FB6407F13C030221184604F024F873
:101330000346002B01D000F05FF9094B3B6000230E
:10134000FB610023BB633B46184604F0FBF90346F0
:10135000002B01D000F050F900BF7837BD4680BDAA
:101360002000020080B500AF1B4B1C4A1A601A4BCC
:1013700040F20B225A60184B00229A60164B012251
:10138000DA60154B00221A61134B00225A61124B8E
:1013900000229A61104B0022DA610F4B00221A6280
:1013A0000D4800F075FE0346002B01D000F024F933
:1013B0000021094801F056FB0346002B01D000F044
:1013C0001BF90021044801F098FB0346002B01D0D3
:1013D00000F012F900BF80BD9C05002000540040C1
:1013E00080B500AF1B4B1C4A1A601A4B4FF4827237
:1013F0005A60184B00229A60164B4FF44072DA6024
:10140000144B00221A61134B00225A61114B4FF406
:1014100000729A610F4B0822DA610E4B00221A62A9
:101420000C4B00225A620B4B00229A62094B072296
:10143000DA62084B00221A63064B08225A630548F9
:1014400004F030FB0346002B01D000F0D5F800BFBC
:1014500080BD00BF340600200030014080B588B058
:1014600000AF07F1100300221A605A609A60DA6038
:101470003B1D00221A605A609A601E4B1E4A1A6079
:101480001C4B4EF65F225A601A4B00229A60194B91
:101490004FF6FF72DA60174B00221A61154B0022DB
:1014A0009A61144804F0A9FB0346002B01D000F018
:1014B000A3F84FF480533B6107F1100319460D4820
:1014C00004F054FC0346002B01D000F095F80023F3
:1014D0007B600023FB603B1D1946064804F03AFE82
:1014E0000346002B01D000F087F800BF2037BD462F
:1014F00080BD00BFE80500200004004080B58AB030
:1015000000AF07F1140300221A605A609A60DA6093
:101510001A61374B5B69364A43F400135361344B0D
:101520005B6903F400133B613B69314B5B69304AF3
:1015300043F4002353612E4B5B6903F40023FB60EB
:10154000FB682B4B5B692A4A43F480035361284BA9
:101550005B6903F48003BB60BB68254B5B69244A6D
:1015600043F400335361224B5B6903F400337B6027
:101570007B681F4B5B691E4A43F4802353611C4BFD
:101580005B6903F480233B603B6800224FF60871DF
:10159000184800F065FD37237B614FF49013BB6161
:1015A0000023FB6107F114031946124800F0C6FB43
:1015B0004FF608737B610123BB610023FB610023AD
:1015C0003B6207F1140319460A4800F0B7FB0123F8
:1015D0007B610023BB610023FB6107F11403194603
:1015E0004FF0904000F0AAFB00BF2837BD4680BDF9
:1015F000001002400010004880B400AF72B600BF77
:10160000FEE7000080B582B000AF0F4B9B690E4A29
:1016100043F0010393610C4B9B6903F001037B6072
:101620007B68094BDB69084A43F08053D361064B62
:10163000DB6903F080533B603B68072000F03CFB14
:1016400000BF0837BD4680BD0010024080B58AB09B
:1016500000AF786007F1140300221A605A609A60A4
:10166000DA601A617B681B68174A934227D1174BCF
:101670005B69164A43F480235361144B5B6903F49E
:1016800080233B613B69C0237B611223BB61012343
:10169000FB6103233B6204237B6207F114031946B9
:1016A0000B4800F04BFB094BDB69084A43F400137D
:1016B000D361064BDB6903F40013FB60FB6800BFDA
:1016C0002837BD4680BD00BF0054004000100240D6
:1016D0000004004880B58AB000AF786007F11403B9
:1016E00000221A605A609A60DA601A617B681B688F
:1016F000174A934228D1174B9B69164A43F48053EB
:101700009361144B9B6903F480533B613B69114B1C
:101710005B69104A43F4003353610E4B5B6903F479
:101720000033FB60FB68E0237B610223BB61002385
:10173000FB6103233B6205237B6207F11403194617
:101740004FF0904000F0FAFA00BF2837BD4680BD48
:10175000003001400010024080B485B000AF7860D6
:101760007B681B680A4A93420BD10A4BDB69094A22
:1017700043F00203D361074BDB6903F00203FB6014
:10178000FB6800BF1437BD465DF8047B704700BF9F
:10179000000400400010024080B400AFFEE780B4B7
:1017A00000AFFEE780B400AFFEE780B400AFFEE715
:1017B00080B400AFFEE780B400AF00BFBD465DF867
:1017C000047B704780B400AF00BFBD465DF8047B6A
:1017D000704780B400AF00BFBD465DF8047B704722
:1017E00080B500AF00F054F900BF80BD80B500AFF8
:1017F000024801F0D2FA00BF80BD00BF30130020C4
:1018000080B400AF01231846BD465DF8047B7047E5
:1018100080B582B000AF7860396008F0CBFD034638
:1018200016221A604FF0FF3318460837BD4680BDB8
:1018300080B582B000AF78604FF0FF317868FFF775
:10184000E7FFFEE780B586B000AFF860B9607A6068
:1018500000237B610AE0AFF300800146BB685A1C9D
:10186000BA60CAB21A707B6901337B617A697B689E
:101870009A42F0DB7B6818461837BD4680BD80B5BC
:1018800086B000AFF860B9607A6000237B6109E040
:10189000BB685A1CBA601B781846AFF300807B699E
:1018A00001337B617A697B689A42F1DB7B68184679
:1018B0001837BD4680BD80B483B000AF78604FF06C
:1018C000FF3318460C37BD465DF8047B704780B483
:1018D00083B000AF786039603B684FF400525A60C3
:1018E000002318460C37BD465DF8047B704780B472
:1018F00083B000AF7860012318460C37BD465DF811
:10190000047B704780B485B000AFF860B9607A603E
:10191000002318461437BD465DF8047B704700006D
:1019200080B586B000AF7860144A154BD31A7B613E
:101930007B693B61134B1B68002B02D1114B124A90
:101940001A60104B1A687B6813443A699A4207D2AE
:1019500008F030FD03460C221A604FF0FF3309E017
:10196000084B1B68FB60074B1A687B681344054AE9
:101970001360FB6818461837BD4680BD00A00020E4
:10198000000400006C0300203016002080B400AF7B
:10199000064BD3F88830054A43F47003C2F8883008
:1019A00000BFBD465DF8047B704700BF00ED00E05E
:1019B000DFF834D00D480E490E4A002302E0D45817
:1019C000C4500433C4188C42F9D30B4A0B4C002387
:1019D00001E013600432A242FBD3FFF7D7FF08F007
:1019E000EFFCFFF70DFAFEE700A00020000000204A
:1019F0005003002048E60008500300202C16002069
:101A0000FEE7000080B500AF084B1B68074A43F0B3
:101A100010031360032000F04FF9002000F008F8D5
:101A2000FFF7F0FD0023184680BD00BF00200240F4
:101A300080B582B000AF7860124B1A68124B1B78E9
:101A400019464FF47A73B3FBF1F3B2FBF3F3184684
:101A500000F067F90346002B01D001230EE07B68FC
:101A60000F2B0AD8002279684FF0FF3000F02FF9D1
:101A7000064A7B681360002300E0012318460837FC
:101A8000BD4680BD000000200800002004000020AA
:101A900080B400AF064B1B781A46064B1B681344F4
:101AA000044A136000BFBD465DF8047B704700BF69
:101AB000080000209806002080B400AF034B1B688C
:101AC0001846BD465DF8047B704700BF98060020AD
:101AD00080B584B000AF7860FFF7EEFFB8607B6838
:101AE000FB60FB68B3F1FF3F05D00A4B1B781A4639
:101AF000FB681344FB6000BFFFF7DEFF0246BB68D4
:101B0000D31AFA689A42F7D800BF00BF1037BD4613
:101B100080BD00BF0800002080B485B000AF7860B1
:101B20007B6803F00703FB600C4BDB68BB60BA68A3
:101B30004FF6FF031340BB60FB681A02BB681343F8
:101B400043F0BF6343F40033BB60044ABB68D36017
:101B500000BF1437BD465DF8047B704700ED00E020
:101B600080B400AF044BDB681B0A03F00703184680
:101B7000BD465DF8047B704700ED00E080B483B0A3
:101B800000AF0346FB7197F90730002B0BDBFB79A5
:101B900003F01F02074997F907305B09012000FA9B
:101BA00002F241F8232000BF0C37BD465DF8047BEC
:101BB000704700BF00E100E080B483B000AF03468F
:101BC0003960FB7197F90730002B0ADB3B68DAB20A
:101BD0000C4997F907301201D2B20B4483F8002365
:101BE0000AE03B68DAB20849FB7903F00F03043BD3
:101BF0001201D2B20B441A7600BF0C37BD465DF815
:101C0000047B704700E100E000ED00E080B489B0A3
:101C100000AFF860B9607A60FB6803F00703FB610E
:101C2000FB69C3F10703042B28BF0423BB61FB69D5
:101C30000433062B02D9FB69033B00E000237B61E0
:101C40004FF0FF32BB6902FA03F3DA43BB681A4074
:101C50007B699A404FF0FF317B6901FA03F3D94366
:101C60007B680B40134318462437BD465DF8047B60
:101C70007047000080B582B000AF78607B68013BA0
:101C8000B3F1807F01D301230FE00A4A7B68013B57
:101C900053600F214FF0FF30FFF78EFF054B0022FE
:101CA0009A60044B07221A60002318460837BD4685
:101CB00080BD00BF10E000E080B582B000AF78606A
:101CC0007868FFF729FF00BF0837BD4680BD80B5A3
:101CD00086B000AF0346B9607A60FB7300237B6176
:101CE000FFF73EFF78617A68B9687869FFF78EFF81
:101CF000024697F90F3011461846FFF75DFF00BF07
:101D00001837BD4680BD80B582B000AF0346FB7179
:101D100097F907301846FFF731FF00BF0837BD4677
:101D200080BD80B582B000AF78607868FFF7A2FF11
:101D3000034618460837BD4680BD000080B487B012
:101D400000AF7860396000237B6154E13B681A681A
:101D500001217B6901FA03F31340FB60FB68002B50
:101D600000F046813B685B6803F00303012B05D05C
:101D70003B685B6803F00303022B30D17B689B68F0
:101D80003B617B695B00032202FA03F3DB433A69A0
:101D900013403B613B68DA687B695B0002FA03F33E
:101DA0003A6913433B617B683A699A607B685B6878
:101DB0003B6101227B6902FA03F3DB433A6913407A
:101DC0003B613B685B681B0903F001027B6902FA17
:101DD00003F33A6913433B617B683A695A603B6895
:101DE0005B6803F00303032B17D07B68DB683B6160
:101DF0007B695B00032202FA03F3DB433A69134079
:101E00003B613B689A687B695B0002FA03F33A69BD
:101E100013433B617B683A69DA603B685B6803F0B7
:101E20000303022B23D17B69DA087B68083253F85D
:101E300022303B617B6903F007039B000F2202FA0B
:101E400003F3DB433A6913403B613B681A697B69E2
:101E500003F007039B0002FA03F33A6913433B6163
:101E60007B69DA087B680832396943F822107B689D
:101E70001B683B617B695B00032202FA03F3DB43CF
:101E80003A6913403B613B685B6803F003027B697E
:101E90005B0002FA03F33A6913433B617B683A69DA
:101EA0001A603B685B6803F44033002B00F0A080AD
:101EB000584B9B69574A43F001039361554B9B690B
:101EC00003F00103BB60BB68534A7B699B08023384
:101ED00052F823303B617B6903F003039B000F2220
:101EE00002FA03F3DB433A6913403B617B68B3F1C9
:101EF000904F19D07B68494A934213D07B68484A77
:101F000093420DD07B68474A934207D07B68464A8C
:101F1000934201D1042308E0052306E0032304E0F3
:101F2000022302E0012300E000237A6902F00302A9
:101F3000920093403A6913433B6137497B699B08A0
:101F400002333A6941F82320384B1B683B61FB6838
:101F5000DB433A6913403B613B685B6803F48033C1
:101F6000002B03D03A69FB6813433B612F4A3B695E
:101F700013602E4B5B683B61FB68DB433A6913409F
:101F80003B613B685B6803F40033002B03D03A6984
:101F9000FB6813433B61254A3B695360234B9B68B5
:101FA0003B61FB68DB433A6913403B613B685B681C
:101FB00003F48013002B03D03A69FB6813433B61A1
:101FC0001A4A3B699360194BDB683B61FB68DB4352
:101FD0003A6913403B613B685B6803F40013002BD4
:101FE00003D03A69FB6813433B61104A3B69D360F5
:101FF0007B6901337B613B681A687B6922FA03F3D2
:10200000002B7FF4A3AE00BF00BF1C37BD465DF8B8
:10201000047B7047001002400000014000040048AB
:1020200000080048000C004800100048000401406F
:1020300080B485B000AF78600B467B807B681A69FE
:102040007B881340002B02D00123FB7301E00023A7
:10205000FB73FB7B18461437BD465DF8047B704765
:1020600080B483B000AF78600B467B8013467B70F2
:102070007B78002B03D07A887B689A6102E07A88AB
:102080007B689A6200BF0C37BD465DF8047B7047E1
:1020900080B582B000AF78607B68002B01D101234E
:1020A00081E07B6893F84130DBB2002B06D17B687E
:1020B000002283F840207868FFF7C8FA7B68242262
:1020C00083F841207B681B681A687B681B6822F0D4
:1020D00001021A607B685A687B681B6822F0706294
:1020E0001A617B681B689A687B681B6822F400424F
:1020F0009A607B68DB68012B07D17B689A687B68F4
:102100001B6842F400429A6006E07B689A687B682C
:102110001B6842F404429A607B68DB68022B04D19E
:102120007B681B684FF400625A607B681B685B68C1
:102130007A68126843F0007343F4004353607B688D
:102140001B68DA687B681B6822F40042DA607B68EF
:102150001A697B685B6942EA03017B689B691A0222
:102160007B681B680A43DA607B68D9697B681A6AF6
:102170007B681B680A431A607B681B681A687B6867
:102180001B6842F001021A607B6800225A647B6877
:10219000202283F841207B6800221A637B6800229A
:1021A00083F84220002318460837BD4680BD000052
:1021B00080B588B002AFF860084611461A4603465B
:1021C0007B810B463B811346FB80FB6893F84130D3
:1021D000DBB2202B40F0F9803B6A002B02D0BB8C95
:1021E000002B05D1FB684FF400725A640123EDE027
:1021F000FB6893F84030012B01D10223E6E0FB6835
:10220000012283F84020FFF757FC78617B69009337
:10221000192301224FF40041F86800F0C3FA034685
:10222000002B01D00123D1E0FB68212283F841205B
:10223000FB68402283F84220FB6800225A64FB6856
:102240003A6A5A62FB68BA8C5A85FB6800225A6364
:10225000F8883A8979897B690193BB6A00930346C0
:10226000F86800F0D3F90346002B05D0FB68002284
:1022700083F840200123A9E0FB685B8D9BB2FF2B14
:102280000ED9FB68FF221A85FB681B8DDAB27989AB
:10229000002300934FF08073F86800F0B5FB0FE067
:1022A000FB685B8D9AB2FB681A85FB681B8DDAB2FE
:1022B0007989002300934FF00073F86800F0A4FBC5
:1022C0007A69B96AF86800F0ADFA0346002B01D0CC
:1022D00001237BE0FB685B6A1A78FB681B689A62E3
:1022E000FB685B6A5A1CFB685A62FB685B8D9BB299
:1022F000013B9AB2FB685A85FB681B8D013B9AB281
:10230000FB681A85FB685B8D9BB2002B34D0FB68A1
:102310001B8D002B30D17B690093BB6A002280218A
:10232000F86800F03FFA0346002B01D001234DE08E
:10233000FB685B8D9BB2FF2B0ED9FB68FF221A85D1
:10234000FB681B8DDAB27989002300934FF080730C
:10235000F86800F059FB0FE0FB685B8D9AB2FB68F0
:102360001A85FB681B8DDAB27989002300934FF040
:102370000073F86800F048FBFB685B8D9BB2002B94
:102380009ED17A69B96AF86800F08CFA0346002B8E
:1023900001D001231AE0FB681B682022DA61FB6888
:1023A0001B685968FB681A680A4B0B405360FB684E
:1023B000202283F84120FB68002283F84220FB683A
:1023C000002283F84020002300E00223184618373B
:1023D000BD4680BD00E800FE80B588B002AFF86061
:1023E000084611461A4603467B810B463B8113463D
:1023F000FB80FB6893F84130DBB2202B40F0FD807E
:102400003B6A002B02D0BB8C002B05D1FB684FF43C
:1024100000725A640123F1E0FB6893F84030012B0D
:1024200001D10223EAE0FB68012283F84020FFF794
:1024300043FB78617B690093192301224FF400412B
:10244000F86800F0AFF90346002B01D00123D5E076
:10245000FB68222283F84120FB68402283F8422057
:10246000FB6800225A64FB683A6A5A62FB68BA8CBD
:102470005A85FB6800225A63F8883A8979897B6912
:102480000193BB6A00930346F86800F013F9034612
:10249000002B05D0FB68002283F840200123ADE02B
:1024A000FB685B8D9BB2FF2B0ED9FB68FF221A8560
:1024B000FB681B8DDAB27989524B00934FF0807321
:1024C000F86800F0A1FA0FE0FB685B8D9AB2FB6838
:1024D0001A85FB681B8DDAB279894A4B00934FF05D
:1024E0000073F86800F090FA7B690093BB6A0022E1
:1024F0000421F86800F056F90346002B01D00123AF
:102500007CE0FB681B685A6AFB685B6AD2B21A708F
:10251000FB685B6A5A1CFB685A62FB681B8D013BB7
:102520009AB2FB681A85FB685B8D9BB2013B9AB23D
:10253000FB685A85FB685B8D9BB2002B34D0FB682F
:102540001B8D002B30D17B690093BB6A0022802158
:10255000F86800F027F90346002B01D001234DE075
:10256000FB685B8D9BB2FF2B0ED9FB68FF221A859F
:10257000FB681B8DDAB27989002300934FF08073DA
:10258000F86800F041FA0FE0FB685B8D9AB2FB68D7
:102590001A85FB681B8DDAB27989002300934FF00E
:1025A0000073F86800F030FAFB685B8D9BB2002B7B
:1025B0009AD17A69B96AF86800F074F90346002B79
:1025C00001D001231AE0FB681B682022DA61FB6856
:1025D0001B685968FB681A680B4B0B405360FB681B
:1025E000202283F84120FB68002283F84220FB6808
:1025F000002283F84020002300E002231846183709
:10260000BD4680BD0024008000E800FE80B586B095
:1026100002AFF860084611461A4603467B810B4616
:102620003B811346FB80FB88DAB27989204B00930B
:102630004FF08073F86800F0E7F9FA69B969F86853
:1026400000F0F0F80346002B01D001232CE0FB88BA
:10265000012B05D13B89DAB2FB681B689A6215E051
:102660003B891B0A9BB2DAB2FB681B689A62FA6963
:10267000B969F86800F0D6F80346002B01D00123B1
:1026800012E03B89DAB2FB681B689A62FB6900932F
:10269000BB6900228021F86800F084F80346002B13
:1026A00001D0012300E0002318461037BD4680BD4D
:1026B0000020008080B586B002AFF8600846114661
:1026C0001A4603467B810B463B811346FB80FB8801
:1026D000DAB27989204B00930023F86800F094F96E
:1026E000FA69B969F86800F09DF80346002B01D03B
:1026F00001232CE0FB88012B05D13B89DAB2FB6872
:102700001B689A6215E03B891B0A9BB2DAB2FB6830
:102710001B689A62FA69B969F86800F083F80346A1
:10272000002B01D0012312E03B89DAB2FB681B6861
:102730009A62FB690093BB6900224021F86800F0AF
:1027400031F80346002B01D0012300E00023184696
:102750001037BD4680BD00BF0020008080B483B02C
:1027600000AF78607B681B689B6903F00203022B53
:1027700003D17B681B6800229A627B681B689B6997
:1027800003F00103012B07D07B681B689A697B6803
:102790001B6842F001029A6100BF0C37BD465DF82C
:1027A000047B704780B584B000AFF860B9603B60CF
:1027B0001346FB7122E03B68B3F1FF3F1ED0FFF7E9
:1027C0007BF90246BB69D31A3A689A4202D33B6846
:1027D000002B13D1FB685B6C43F02002FB685A644A
:1027E000FB68202283F84120FB68002283F8422006
:1027F000FB68002283F8402001230FE0FB681B6880
:102800009A69BB681340BA689A420CBF012300233F
:10281000DBB21A46FB799A42CDD000231846103716
:10282000BD4680BD80B584B000AFF860B9607A6005
:102830002CE07A68B968F86800F070F80346002B5D
:1028400001D001232AE0BB68B3F1FF3F1ED0FFF7A0
:1028500033F902467B68D31ABA689A4202D3BB683E
:10286000002B13D1FB685B6C43F02002FB685A64B9
:10287000FB68202283F84120FB68002283F8422075
:10288000FB68002283F84020012307E0FB681B68F7
:102890009B6903F00203022BCBD1002318461037AB
:1028A000BD4680BD80B584B000AFF860B9607A6085
:1028B00028E07A68B968F86800F030F80346002B21
:1028C00001D0012326E0FFF7F7F802467B68D31A10
:1028D000BA689A4202D3BB68002B13D1FB685B6CC9
:1028E00043F02002FB685A64FB68202283F84120F1
:1028F000FB68002283F84220FB68002283F8402016
:10290000012307E0FB681B689B6903F02003202B71
:10291000CFD1002318461037BD4680BD80B584B0A6
:1029200000AFF860B9607A60FB681B689B6903F0D0
:102930001003102B61D1FB681B685B6803F0007308
:10294000B3F1007F2BD0FB681B685A68FB681B68DB
:1029500042F480425A6022E0BB68B3F1FF3F1ED0D0
:10296000FFF7AAF802467B68D31ABA689A4202D3E4
:10297000BB68002B13D1FB685B6C43F02002FB6843
:102980005A64FB68202283F84120FB68002283F808
:102990004220FB68002283F8402001232EE0FB68E0
:1029A0001B689B6903F02003202BD5D1FB681B68B3
:1029B0001022DA61FB681B682022DA61F868FFF7F1
:1029C000CDFEFB681B685968FB681A680D4B0B400D
:1029D0005360FB685B6C43F00402FB685A64FB685D
:1029E000202283F84120FB68002283F84220FB6804
:1029F000002283F84020012300E00023184610370E
:102A0000BD4680BD00E800FE80B485B000AFF86030
:102A10007B600B467B8113467B72FB681B685A68A0
:102A2000BB695B0D03F480610D4B0B43DB4302EA92
:102A300003017B89C3F309027B7A1B0403F47F0340
:102A40001A437B681A43BB691A43FB681B680A4335
:102A50005A6000BF1437BD465DF8047B704700BF65
:102A6000FF63FF0380B483B000AF786039607B6898
:102A700093F84130DBB2202B38D17B6893F840309B
:102A8000012B01D1022332E07B68012283F8402030
:102A90007B68242283F841207B681B681A687B6866
:102AA0001B6822F001021A607B681B681A687B6849
:102AB0001B6822F480521A607B681B6819687B6867
:102AC0001B683A680A431A607B681B681A687B684F
:102AD0001B6842F001021A607B68202283F84120C3
:102AE0007B68002283F84020002300E00223184680
:102AF0000C37BD465DF8047B704780B485B000AFED
:102B0000786039607B6893F84130DBB2202B39D193
:102B10007B6893F84030012B01D1022333E07B68BE
:102B2000012283F840207B68242283F841207B68BF
:102B30001B681A687B681B6822F001021A607B68B8
:102B40001B681B68FB60FB6823F47063FB603B68D9
:102B50001B02FA681343FB607B681B68FA681A6003
:102B60007B681B681A687B681B6842F001021A6068
:102B70007B68202283F841207B68002283F8402074
:102B8000002300E0022318461437BD465DF8047B9D
:102B90007047F0B58BB006AF78607B68002B01D131
:102BA0000123D0E07B6893F8A932DBB2002B06D179
:102BB0007B68002283F8A822786807F025F97B68F3
:102BC000032283F8A9227B681B68184603F059FB8F
:102BD0000023FB734CE0FB7B79685A1C13469B0077
:102BE0001344DB000B44013301221A70FB7B79682C
:102BF0005A1C13469B001344DB000B44FA7B1A70EB
:102C0000FA7BFB7B98B2796813469B001344DB0088
:102C10000B44363302461A80FB7B79685A1C1346F4
:102C20009B001344DB000B44033300221A70FA7B31
:102C3000796813469B001344DB000B4438330022B1
:102C40001A60FA7B796813469B001344DB000B443F
:102C50003C3300221A60FA7B796813469B001344C8
:102C6000DB000B44403300221A60FB7B0133FB7313
:102C7000FA7B7B685B689A42ADD30023FB7344E028
:102C8000FA7B796813469B001344DB000B4403F284
:102C9000691300221A70FA7B796813469B0013446B
:102CA000DB000B4403F5B473FA7B1A70FA7B796886
:102CB00013469B001344DB000B4403F26B1300220A
:102CC0001A70FA7B796813469B001344DB000B44AF
:102CD00003F5BC7300221A60FA7B796813469B00E7
:102CE0001344DB000B4403F5BE7300221A60FA7B29
:102CF000796813469B001344DB000B4403F5C07353
:102D000000221A60FB7B0133FB73FA7B7B685B68F4
:102D10009A42B5D37B681B683B607E686D4606F1BE
:102D200010040FCC0FC523682B60331D0ECB386801
:102D300003F0C2FA7B68002283F824207B6801221A
:102D400083F8A922002318461437BD46F0BD80B58C
:102D500082B000AF78607B6893F8A832012B01D174
:102D6000022316E07B68012283F8A8227B681B6897
:102D7000184603F06FFA0121786807F0E3FA7B68E0
:102D80001B68184605F020FA7B68002283F8A82209
:102D9000002318460837BD4680BD80B582B000AF1D
:102DA00078607B681B68184605F019FA034603F43F
:102DB0000043B3F5004F02D1786800F0F6FA7B6863
:102DC0001B68184605F00BFA034603F48063B3F55D
:102DD000806F12D17B681B68B3F844309AB27B686D
:102DE0001B6822F4806292B2A3F84420786807F04E
:102DF000ACF80021786800F0C7F87B681B681846BB
:102E000005F0EDF9034603F48043B3F5804F0BD191
:102E10007B681B68B3F844309AB27B681B6822F465
:102E2000804292B2A3F844207B681B68184605F0E4
:102E3000D6F9034603F40053B3F5005F0BD17B686A
:102E40001B68B3F844309AB27B681B6822F40052C6
:102E500092B2A3F844207B681B68184605F0BFF9BE
:102E6000034603F48053B3F5805F26D17B681B686B
:102E7000B3F840309AB27B681B6822F0040292B229
:102E8000A3F840207B681B68B3F840309AB27B6897
:102E90001B6822F0080292B2A3F84020786807F07D
:102EA0008DF87B681B68B3F844309AB27B681B6866
:102EB00022F4805292B2A3F844207B681B68184623
:102EC00005F08DF9034603F40063B3F5006F26D1D6
:102ED0007B681B68B3F840309AB27B681B6842F08D
:102EE000080292B2A3F840207B681B68B3F8443014
:102EF0009AB27B681B6822F4006292B2A3F8442065
:102F00007B681B68B3F840309AB27B681B6842F05C
:102F1000040292B2A3F84020786807F035F87B6885
:102F20001B68184605F05BF9034603F40073B3F51C
:102F3000007F0ED17B681B68B3F844309AB27B687F
:102F40001B6822F4007292B2A3F84420786806F05D
:102F5000EEFF7B681B68184605F041F9034603F451
:102F60008073B3F5807F0BD17B681B68B3F8443066
:102F70009AB27B681B6822F4807292B2A3F8442054
:102F800000BF0837BD4680BD80B582B000AF786015
:102F90000B46FB707B6893F8A832012B01D102230A
:102FA00013E07B68012283F8A8227B68FA7883F813
:102FB00024207B681B68FA781146184605F0F0F863
:102FC0007B68002283F8A822002318460837BD46F4
:102FD00080BD80B584B000AF7860084611461A46BF
:102FE0000346FB700B463B801346BB700023FB720D
:102FF00097F90330002B0EDAFB7803F007035A1C15
:1030000013469B001344DB007A681344FB60FB68A3
:1030100001225A700EE0FB7803F0070213469B0072
:103020001344DB0003F5B4737A681344FB60FB6858
:1030300000225A70FB7803F00703DAB2FB681A70BB
:103040003A88FB681A61FB68BA78DA70FB685B78CB
:10305000002B04D0FB681B789AB2FB68DA81BB783E
:10306000022B02D1FB6800221A717B6893F8A83208
:10307000012B01D102230EE07B68012283F8A822F4
:103080007B681B68F968184603F038F97B680022F2
:1030900083F8A822FB7A18461037BD4680BD80B55C
:1030A00084B000AF78600B46FB7097F90330002BBB
:1030B0000EDAFB7803F007035A1C13469B001344F7
:1030C000DB007A681344FB60FB6801225A700EE053
:1030D000FB7803F0070213469B001344DB0003F563
:1030E000B4737A681344FB60FB6800225A70FB7863
:1030F00003F00703DAB2FB681A707B6893F8A83212
:10310000012B01D102230EE07B68012283F8A82263
:103110007B681B68F968184603F084FC7B68002212
:1031200083F8A822002318461037BD4680BD80B51D
:1031300086B000AFF8607A603B600B46FB72FB7AAA
:1031400003F0070213469B001344DB0003F5B4733E
:10315000FA6813447B617B697A685A617B693A68D3
:103160009A617B690022DA617B6900225A70FB7ADE
:1031700003F00703DAB27B691A70FB7A03F00703E6
:10318000002B06D1FB681B687969184603F037FEEF
:1031900005E0FB681B687969184603F030FE0023E0
:1031A00018461837BD4680BD80B483B000AF786044
:1031B0000B46FB70FB7803F00702796813469B000F
:1031C0001344DB000B4403F5C2731B6818460C372D
:1031D000BD465DF8047B704780B586B000AFF860EF
:1031E0007A603B600B46FB72FB7A03F007035A1CC4
:1031F00013469B001344DB00FA6813447B617B6930
:103200007A685A617B693A689A617B69012283F81E
:1032100024207B693A681A627B690022DA617B6943
:1032200001225A70FB7A03F00703DAB27B691A7045
:10323000FB7A03F00703002B06D1FB681B68796952
:10324000184603F0DCFD05E0FB681B687969184649
:1032500003F0D5FD002318461837BD4680BD80B564
:1032600084B000AF78600B46FB70FB7803F0070278
:103270007B685B689A4201D901233EE097F90330ED
:10328000002B0EDAFB7803F007035A1C13469B0051
:103290001344DB007A681344FB60FB6801225A7018
:1032A0000CE0FA7813469B001344DB0003F5B4737B
:1032B0007A681344FB60FB6800225A70FB680122A5
:1032C0009A70FB7803F00703DAB2FB681A707B6828
:1032D00093F8A832012B01D102230EE07B68012272
:1032E00083F8A8227B681B68F968184604F059FE29
:1032F0007B68002283F8A822002318461037BD46B9
:1033000080BD80B584B000AF78600B46FB70FB7861
:1033100003F00F027B685B689A4201D9012340E009
:1033200097F90330002B0EDAFB7803F007035A1CE1
:1033300013469B001344DB007A681344FB60FB6870
:1033400001225A700EE0FB7803F0070213469B003F
:103350001344DB0003F5B4737A681344FB60FB6825
:1033600000225A70FB6800229A70FB7803F0070372
:10337000DAB2FB681A707B6893F8A832012B01D18E
:1033800002230EE07B68012283F8A8227B681B6879
:10339000F968184604F056FE7B68002283F8A822DC
:1033A000002318461037BD4680BD80B596B000AFEB
:1033B0007860A9E37B681B68B3F84430A7F85630FF
:1033C000B7F85630DBB203F00F0387F8553097F8A3
:1033D0005530002B40F06481B7F8563003F01003ED
:1033E000002B52D17B681B681B889BB223F4E143FE
:1033F00023F07003FB817B681A68FB896FEA434303
:103400006FEA53439BB213807B682833FB647B686D
:103410001B68B3F850309BB21A46FB6C1B78DB007C
:10342000134402335B007A681268134403F5806327
:103430001B88C3F30902FB6CDA61FB6C5A69FB6CF5
:10344000DB691A44FB6C5A610021786806F055FD6F
:103450007B6893F82430DBB2002B00F05583FB6CC3
:103460009B69002B40F050837B6893F82430DBB2DB
:1034700063F07F03DAB27B681B6892B2A3F84C203A
:103480007B68002283F824203EE37B6803F5B47355
:10349000FB647B681B681B88A7F85230B7F8523072
:1034A00003F40063002B34D07B681B68B3F8503002
:1034B0009BB21A46FB6C1B78DB00134406335B009F
:1034C0007A681268134403F580631B88C3F309020A
:1034D000FB6CDA617B6818687B6803F52C71FB6C08
:1034E000DA88FB6CDB699BB204F0CFFE7B681B685B
:1034F0001B889AB240F68F7313403B827B681B682F
:103500003A8A42F0800292B21A80786806F0C8FCCB
:10351000FAE2B7F95230002B80F2F6827B681B6822
:103520001B889AB240F68F731340FB837B681B683D
:10353000FA8B42F0800292B21A807B681B68B3F863
:1035400050309BB21A46FB6C1B78DB0013440633E9
:103550005B007A681268134403F580631B88C3F329
:103560000902FB6CDA61FB6CDB69002B19D0FB6C88
:103570005B69002B15D07B681868FB6C5969FB6C84
:10358000DA88FB6CDB699BB204F07FFEFB6C5A6946
:10359000FB6CDB691A44FB6C5A610021786806F009
:1035A00091FC7B681B681B889BB203F40063002BB3
:1035B00040F0AA827B681B68BB617B681B68B3F81C
:1035C00050309BB21A46BB691344BB61BB6903F21E
:1035D0000C437B61FB6C1B69002B12D17B691B8840
:1035E0009BB223F4F8439AB27B691A807B691B88EB
:1035F0009BB26FEA43436FEA53439AB27B691A80E6
:103600002FE0FB6C1B693E2B13D8FB6C1B695B081E
:103610007B64FB6C1B6903F00103002B02D07B6C05
:1036200001337B647B6C9BB29B029AB27B691A80EC
:1036300017E0FB6C1B695B097B64FB6C1B6903F087
:103640001F03002B02D17B6C013B7B647B6C9BB224
:103650009B029BB26FEA43436FEA53439AB27B6982
:103660001A807B681B681B889BB223F4804323F07D
:1036700070037B827B8A83F480537B827B8A83F412
:1036800000537B827B681A687B8A43F07F4343F454
:103690007F0343F4004343F080039BB2138033E283
:1036A0007B681B681A4697F855309B0013441B88AB
:1036B000A7F85230B7F95230002B80F2FC807B68BB
:1036C0001B681A4697F855309B0013441B889AB222
:1036D00040F68F731340A7F850307B681B681A467A
:1036E00097F855309B001344B7F8502042F0800201
:1036F00092B21A8097F8552013469B001344DB00C2
:1037000003F5B4737A681344FB64FB6C1B7B002BDA
:1037100025D17B681B68B3F850309BB21A46FB6C0E
:103720001B78DB00134406335B007A68126813448D
:1037300003F580631B88C3F30903A7F84830B7F883
:103740004830002B00F092807B681868FB6C596948
:10375000FB6CDA88B7F8483004F097FD86E0FB6C24
:10376000DB78022B0AD1B7F852301A46F96C786828
:1037700000F0D8F90346A7F8483077E07B681B686B
:103780001A46FB6C1B789B0013441B889BB223F4E6
:10379000E04323F07003A7F84A307B681B681A46A1
:1037A000FB6C1B789B001A44B7F84A3043F07F4308
:1037B00043F47F0343F4004343F0C0039BB2138000
:1037C0007B681B681A46FB6C1B789B0013441B88A4
:1037D0009BB203F48043002B24D07B681B68B3F8B2
:1037E00050309BB21A46FB6C1B78DB00134402334B
:1037F0005B007A681268134403F580631B88C3F387
:103800000903A7F84830B7F84830002B2ED07B6862
:103810001868FB6C5969FB6C1A89B7F8483004F0DA
:1038200034FD23E07B681B68B3F850309BB21A4626
:10383000FB6C1B78DB00134406335B007A6812686C
:10384000134403F580631B88C3F30903A7F84830CA
:10385000B7F84830002B09D07B681868FB6C5969B1
:10386000FB6C5A89B7F8483004F00FFDFB6CDA693D
:10387000B7F848301A44FB6CDA61FB6C5A69B7F848
:1038800048301A44FB6C5A61FB6C9B69002B05D0D5
:10389000B7F84820FB6C1B699A4206D2FB6C1B7878
:1038A0001946786806F00EFB05E07B681B68F96C2A
:1038B000184603F0A4FAB7F8523003F08003002B47
:1038C00000F0228197F855305A1C13469B00134490
:1038D000DB007A681344FB647B681B681A4697F820
:1038E00055309B0013441B889BB223F4E14323F023
:1038F0007003A7F842307B681B681A4697F855306A
:103900009B001A44B7F842306FEA43436FEA5343CF
:103910009BB21380FB6CDB78022B00F09D80FB6C6C
:1039200000229A61B7F8523003F04003002B46D0D2
:10393000FB6C5B78002B26D17B681B687B627B6805
:103940001B68B3F850309BB21A467B6A13447B6203
:10395000FB6C1B781A017B6A134403F204433B623D
:103960003B6A1B889BB223F4F8439AB23B6A1A80E5
:103970003B6A1B889BB26FEA43436FEA53439AB298
:103980003B6A1A8061E0FB6C5B78012B5DD17B6840
:103990001B68FB627B681B68B3F850309BB21A4609
:1039A000FB6A1344FB62FB6C1B781A01FB6A13442D
:1039B00003F20443BB62BB6A00221A8045E07B68C5
:1039C0001B68FB63FB6C5B78002B26D17B681B6854
:1039D0007B637B681B68B3F850309BB21A467B6BE5
:1039E00013447B63FB6C1B781A017B6B134403F25B
:1039F0000C433B633B6B1B889BB223F4F8439AB2A6
:103A00003B6B1A803B6B1B889BB26FEA43436FEAA8
:103A100053439AB23B6B1A8017E0FB6C5B78012B27
:103A200013D17B681B68B3F850309BB21A46FB6B0E
:103A30001344FB63FB6C1B781A01FB6B134403F20A
:103A40000C43BB63BB6B00221A80FB6C1B781946CE
:103A5000786806F052FA57E0FB6CDB78022B4CD109
:103A6000B7F8523003F48073002B46D17B681B6893
:103A7000B3F850309BB21A46FB6C1B78DB00134442
:103A800002335B007A681268134403F580631B8875
:103A9000C3F30903A7F84030FB6C9A69B7F84030CC
:103AA0009A4207D9FB6C9A69B7F84030D21AFB6C7E
:103AB0009A6102E0FB6C00229A61FB6C9B69002B0F
:103AC00006D1FB6C1B781946786806F016FA1BE0E5
:103AD000FB6C5A69B7F840301A44FB6C5A61FB6CB6
:103AE000DA69B7F840301A44FB6CDA617B681B680E
:103AF000F96C184603F083F906E0B7F852301A461D
:103B0000F96C786800F01BF97B681B68B3F84430E7
:103B10009BB21BB2002BFFF64DAC00231846583762
:103B2000BD4680BD80B588B000AFF860B96013466F
:103B3000FB80FB8803F48043002B7ED0FB681B686E
:103B4000B3F850309BB21A46BB681B78DB001344B5
:103B500002335B00FA681268134403F580631B8824
:103B6000C3F309037B83BB689A697B8B9A4206D3B4
:103B7000BB689A697B8BD21ABB689A6102E0BB680A
:103B800000229A61BB689B69002B23D1FB681B68EC
:103B90001A46BB681B789B0013441B889BB223F416
:103BA000804323F070033B833B8B83F400533B83C0
:103BB000FB681B681A46BB681B789B001A443B8B4A
:103BC00043F07F4343F47F0343F4004343F0800317
:103BD0009BB21380FB8803F04003002B1FD0FB68CF
:103BE0001B681A46BB681B789B0013441B889BB25A
:103BF00023F4E04323F07003FB82FB681B681A4642
:103C0000BB681B789B001A44FB8A43F07F4343F454
:103C10007F0343F4004343F0C0039BB213807B8BCC
:103C2000002B00F08780FB681868BB685969BB6887
:103C30001A897B8B04F029FB7CE0FB681B68B3F8D6
:103C400050309BB21A46BB681B78DB001344063326
:103C50005B00FA681268134403F580631B88C3F3A2
:103C600009037B83BB689A697B8B9A4206D3BB6846
:103C70009A697B8BD21ABB689A6102E0BB6800220A
:103C80009A61BB689B69002B23D1FB681B681A46AD
:103C9000BB681B789B0013441B889BB223F48043B2
:103CA00023F07003FB83FB8B83F40053FB83FB68DF
:103CB0001B681A46BB681B789B001A44FB8B43F0B9
:103CC0007F4343F47F0343F4004343F080039BB2FC
:103CD0001380FB8803F04003002B1FD1FB681B6897
:103CE0001A46BB681B789B0013441B889BB223F4C5
:103CF000E04323F07003BB83FB681B681A46BB6874
:103D00001B789B001A44BB8B43F07F4343F47F0333
:103D100043F4004343F0C0039BB213807B8B002B22
:103D200008D0FB681868BB685969BB685A897B8BE7
:103D300004F0ABFA7B8B18462037BD4680BD80B5BA
:103D4000A2B000AFF860B9601346FB80FB8803F0B7
:103D50004003002B00F0C781FB681B68B3F85030AC
:103D60009BB21A46BB681B78DB00134402335B002E
:103D7000FA681268134403F580631B88C3F30903D0
:103D8000A7F84E30BB689A69B7F84E309A4207D907
:103D9000BB689A69B7F84E30D21ABB689A6102E0E4
:103DA000BB6800229A61BB689B69002B40F0B98018
:103DB000BB685B78002B26D1FB681B68BB62FB6885
:103DC0001B68B3F850309BB21A46BB6A1344BB62FF
:103DD000BB681B781A01BB6A134403F204437B627D
:103DE0007B6A1B889BB223F4F8439AB27B6A1A80E1
:103DF0007B6A1B889BB26FEA43436FEA53439AB2D4
:103E00007B6A1A801AE0BB685B78012B16D1FB68CD
:103E10001B683B63FB681B68B3F850309BB21A46C3
:103E20003B6B13443B63BB681B781A013B6B134429
:103E300003F20443FB62FB6A00221A80FB681B68E2
:103E40003B62BB685B78002B26D1FB681B68BB61BB
:103E5000FB681B68B3F850309BB21A46BB69134429
:103E6000BB61BB681B781A01BB69134403F20C43A6
:103E70007B617B691B889BB223F4F8439AB27B6910
:103E80001A807B691B889BB26FEA43436FEA5343F6
:103E90009AB27B691A8017E0BB685B78012B13D15B
:103EA000FB681B68B3F850309BB21A463B6A134458
:103EB0003B62BB681B781A013B6A134403F20C4354
:103EC000FB61FB6900221A80BB681B781946F86801
:103ED00006F013F8FB8803F48043002B00F0D48233
:103EE000FB681B681A46BB681B789B0013441B8841
:103EF0009BB223F4E04323F070037B82FB681B68D2
:103F00001A46BB681B789B001A447B8A43F07F43A8
:103F100043F47F0343F4404343F080039BB2138098
:103F2000B2E2FB8803F48043002B21D0FB681B68BE
:103F30001A46BB681B789B0013441B889BB223F472
:103F4000E04323F07003A7F84430FB681B681A466F
:103F5000BB681B789B001A44B7F8443043F07F439A
:103F600043F47F0343F4404343F080039BB2138048
:103F7000BB6893F82430012B40F08682BB685A69F5
:103F8000B7F84E301A44BB685A61BB68DA69B7F8B3
:103F90004E301A44BB68DA61BB681A6ABB681B6999
:103FA0009A4209D3BB681B693B65BB681A6A3B6DC3
:103FB000D21ABB681A6215E0BB681B6A002B07D1D6
:103FC000B7F84E303B65BB68002283F8242009E037
:103FD000BB68002283F82420BB681B6A3B65BB6872
:103FE00000221A62BB685B78002B55D1FB681B6806
:103FF000BB63FB681B68B3F850309BB21A46BB6BBF
:104000001344BB63BB681B781A01BB6B134403F2F8
:1040100004437B633B6D002B12D17B6B1B889BB2EF
:1040200023F4F8439AB27B6B1A807B6B1B889BB29C
:104030006FEA43436FEA53439AB27B6B1A8047E0BF
:104040003B6D3E2B11D83B6D5B08BB643B6D03F0B1
:104050000103002B02D0BB6C0133BB64BB6C9BB271
:104060009B029AB27B6B1A8032E03B6D5B09BB64AA
:104070003B6D03F01F03002B02D1BB6C013BBB6403
:10408000BB6C9BB29B029BB26FEA43436FEA534304
:104090009AB27B6B1A801BE0BB685B78012B17D14F
:1040A000FB681B683B64FB681B68B3F850309BB22D
:1040B0001A463B6C13443B64BB681B781A013B6C8B
:1040C000134403F20443FB633B6D9AB2FB6B1A800B
:1040D000FB681868BB685969BB681A893B6D9BB25D
:1040E00004F08DF8D0E1FB681B68B3F850309BB248
:1040F0001A46BB681B78DB00134406335B00FA6882
:104100001268134403F580631B88C3F30903A7F8FF
:104110004E30BB689A69B7F84E309A4207D3BB68F5
:104120009A69B7F84E30D21ABB689A6102E0BB6850
:1041300000229A61BB689B69002B40F0C480BB6879
:104140005B78002B26D1FB681B68FB66FB681B684D
:10415000B3F850309BB21A46FB6E1344FB66BB6843
:104160001B781A01FB6E134403F20443BB66BB6E5B
:104170001B889BB223F4F8439AB2BB6E1A80BB6EC5
:104180001B889BB26FEA43436FEA53439AB2BB6EFC
:104190001A801AE0BB685B78012B16D1FB681B689C
:1041A0007B67FB681B68B3F850309BB21A467B6F85
:1041B00013447B67BB681B781A017B6F134403F2BF
:1041C00004433B673B6F00221A80FB681B68BB6798
:1041D000BB685B78002B2FD1FB681B68C7F8803069
:1041E000FB681B68B3F850309BB21A46D7F8803092
:1041F0001344C7F88030BB681B781A01D7F88030A9
:10420000134403F20C43C7F88430D7F884301B887A
:104210009BB223F4F8439AB2D7F884301A80D7F8C7
:1042200084301B889BB26FEA43436FEA53439AB2D0
:10423000D7F884301A8017E0BB685B78012B13D164
:10424000FB681B68B3F850309BB21A46BB6F13442F
:10425000BB67BB681B781A01BB6F134403F20C43A6
:10426000FB67FB6F00221A80BB681B781946F86851
:1042700005F043FEFB8803F48043002B40F00481EB
:10428000FB681B681A46BB681B789B0013441B889D
:104290009BB223F4E04323F07003A7F84630FB6899
:1042A0001B681A46BB681B789B001A44B7F8463057
:1042B00043F07F4343F47F0343F4404343F08003E0
:1042C0009BB21380E0E0FB8803F48043002B21D1F4
:1042D000FB681B681A46BB681B789B0013441B884D
:1042E0009BB223F4E04323F07003A7F84C30FB6843
:1042F0001B681A46BB681B789B001A44B7F84C3001
:1043000043F07F4343F47F0343F4404343F080038F
:104310009BB21380BB6893F82430012B40F0B4802B
:10432000BB685A69B7F84E301A44BB685A61BB681B
:10433000DA69B7F84E301A44BB68DA61BB681A6AAA
:10434000BB681B699A4209D3BB681B693B65BB68A4
:104350001A6A3B6DD21ABB681A6215E0BB681B6A09
:10436000002B07D1B7F84E303B65BB68002283F8BD
:10437000242009E0BB681B6A3B65BB6800221A6207
:10438000BB68002283F82420FB681B687B66BB683F
:104390005B78002B55D1FB681B68FB65FB681B68CD
:1043A000B3F850309BB21A46FB6D1344FB65BB68F3
:1043B0001B781A01FB6D134403F20C43BB653B6D84
:1043C000002B12D1BB6D1B889BB223F4F8439AB229
:1043D000BB6D1A80BB6D1B889BB26FEA43436FEACB
:1043E00053439AB2BB6D1A8044E03B6D3E2B11D80B
:1043F0003B6D5B087B653B6D03F00103002B02D036
:104400007B6D01337B657B6D9BB29B029AB2BB6D6A
:104410001A802FE03B6D5B097B653B6D03F01F034A
:10442000002B02D17B6D013B7B657B6D9BB29B02B8
:104430009BB26FEA43436FEA53439AB2BB6D1A8053
:1044400018E0BB685B78012B14D1FB681B68B3F8DC
:1044500050309BB21A467B6E13447B66BB681B7858
:104460001A017B6E134403F20C433B663B6D9AB218
:104470003B6E1A80FB681868BB685969BB685A892B
:104480003B6D9BB203F0BBFEFB681B681A46BB6822
:104490001B789B0013441B889BB223F4E04323F05A
:1044A00040033B823B8A83F010033B823B8A83F0CC
:1044B00020033B82FB681B681A46BB681B789B0085
:1044C0001A443B8A43F07F4343F47F0343F40043A1
:1044D00043F080039BB21380002318468837BD4603
:1044E00080BD80B487B000AFF8607B600B467B81F5
:1044F00013463B817B8903F080039BB2002B0BD0DA
:104500007B8903F007035A1C13469B001344DB000E
:10451000FA6813447B6109E07A8913469B001344CF
:10452000DB0003F5B473FA6813447B613B89002B0D
:1045300007D17B6900221A737B689AB27B69DA80A3
:104540000BE07B6901221A737B689AB27B691A813E
:104550007B681B0C9AB27B695A81002318461C3772
:10456000BD465DF8047B704780B5ADF5007D00AFBA
:104570003B1D18603B1D1B68002B02D1012300F07E
:10458000F4BE3B1D1B681B6803F00103002B00F009
:104590006A81B34B5B6803F00C03042B0CD0B04B67
:1045A0005B6803F00C03082B59D1AD4B5B6803F437
:1045B0008033B3F5803F52D14FF40033C7F8F03168
:1045C000D7F8F03193FAA3F3C7F8EC31D7F8EC3110
:1045D000B3FA83F3DBB25B09DBB243F00103DBB276
:1045E000012B02D19E4B1B6815E04FF40033C7F836
:1045F000E831D7F8E83193FAA3F3C7F8E4314FF480
:104600000033C7F8E031D7F8E03193FAA3F3C7F8E5
:10461000DC31934B5B6A4FF40032C7F8D821D7F8EE
:10462000D82192FAA2F2C7F8D421D7F8D421B2FA4D
:1046300082F2D2B242F02002D2B202F01F02012175
:1046400001FA02F21340002B00F00C813B1D1B68A5
:104650005B68002B40F00681012300F086BE3B1D05
:104660001B685B68B3F5803F06D17D4B1B687C4AB5
:1046700043F48033136030E03B1D1B685B68002B04
:104680000CD1774B1B68764A23F480331360744B4C
:104690001B68734A23F4802313601EE03B1D1B68D4
:1046A0005B68B3F5A02F0CD16D4B1B686C4A43F4CB
:1046B000802313606A4B1B68694A43F4803313609C
:1046C0000BE0674B1B68664A23F480331360644B2E
:1046D0001B68634A23F480231360614BDB6A23F079
:1046E0000F023B1D1B689B685D491343CB623B1D5A
:1046F0001B685B68002B59D0FDF7DEF9C7F8F8019D
:104700000AE0FDF7D9F90246D7F8F831D31A642B3D
:1047100002D9032300F029BE4FF40033C7F8D0318B
:10472000D7F8D03193FAA3F3C7F8CC31D7F8CC310E
:10473000B3FA83F3DBB25B09DBB243F00103DBB214
:10474000012B02D1464B1B6815E04FF40033C7F82C
:10475000C831D7F8C83193FAA3F3C7F8C4314FF47E
:104760000033C7F8C031D7F8C03193FAA3F3C7F8C4
:10477000BC313B4B5B6A4FF40032C7F8B821D7F825
:10478000B82192FAA2F2C7F8B421D7F8B421B2FA4C
:1047900082F2D2B242F02002D2B202F01F02012114
:1047A00001FA02F21340002BABD05CE0FDF784F974
:1047B000C7F8F8010AE0FDF77FF90246D7F8F831AB
:1047C000D31A642B02D9032300F0CFBD4FF400337A
:1047D000C7F8B031D7F8B03193FAA3F3C7F8AC31CA
:1047E000D7F8AC31B3FA83F3DBB25B09DBB243F049
:1047F0000103DBB2012B02D1194B1B6815E04FF40A
:104800000033C7F8A831D7F8A83193FAA3F3C7F853
:10481000A4314FF40033C7F8A031D7F8A03193FA90
:10482000A3F3C7F89C310E4B5B6A4FF40032C7F814
:104830009821D7F8982192FAA2F2C7F89421D7F8D4
:104840009421B2FA82F2D2B242F02002D2B202F045
:104850001F02012101FA02F21340002BABD102E04A
:104860000010024000BF3B1D1B681B6803F00203E1
:10487000002B00F06F81D04B5B6803F00C03002B22
:104880000BD0CD4B5B6803F00C03082B6CD1CA4BEB
:104890005B6803F48033002B66D10223C7F89031A4
:1048A000D7F8903193FAA3F3C7F88C31D7F88C314D
:1048B000B3FA83F3DBB25B09DBB243F00103DBB293
:1048C000012B02D1BC4B1B6813E00223C7F88831CF
:1048D000D7F8883193FAA3F3C7F884310223C7F8D5
:1048E0008031D7F8803193FAA3F3C7F87C31B24B0B
:1048F0005B6A0222C7F87821D7F8782192FAA2F2EF
:10490000C7F87421D7F87421B2FA82F2D2B242F019
:104910002002D2B202F01F02012101FA02F213407A
:10492000002B07D03B1D1B681B69012B02D0012304
:1049300000F01BBDA04B1B6823F0F8023B1D1B6859
:104940005B69F821C7F87011D7F8701191FAA1F1DD
:10495000C7F86C11D7F86C11B1FA81F1C9B28B406C
:10496000954913430B60F5E03B1D1B681B69002B49
:1049700000F085800123C7F86831D7F8683193FAD1
:10498000A3F3C7F86431D7F86431B3FA83F3DBB229
:1049900003F1845303F584139B001A46012313602B
:1049A000FDF78AF8C7F8F8010AE0FDF785F8024636
:1049B000D7F8F831D31A022B02D9032300F0D5BC63
:1049C0000223C7F86031D7F8603193FAA3F3C7F830
:1049D0005C31D7F85C31B3FA83F3DBB25B09DBB24D
:1049E00043F00103DBB2012B02D1734B1B6813E0D0
:1049F0000223C7F85831D7F8583193FAA3F3C7F810
:104A000054310223C7F85031D7F8503193FAA3F349
:104A1000C7F84C31684B5B6A0222C7F84821D7F8C7
:104A2000482192FAA2F2C7F84421D7F84421B2FAF9
:104A300082F2D2B242F02002D2B202F01F02012171
:104A400001FA02F21340002BAFD05B4B1B6823F03E
:104A5000F8023B1D1B685B69F821C7F84011D7F8C5
:104A6000401191FAA1F1C7F83C11D7F83C11B1FA05
:104A700081F1C9B28B40504913430B606AE00123B6
:104A8000C7F83831D7F8383193FAA3F3C7F834317F
:104A9000D7F83431B3FA83F3DBB203F1845303F56F
:104AA00084139B001A4600231360FDF705F8C7F82E
:104AB000F8010AE0FDF700F80246D7F8F831D31AFA
:104AC000022B02D9032300F050BC0223C7F8303177
:104AD000D7F8303193FAA3F3C7F82C31D7F82C313B
:104AE000B3FA83F3DBB25B09DBB243F00103DBB261
:104AF000012B02D1304B1B6813E00223C7F8283189
:104B0000D7F8283193FAA3F3C7F824310223C7F862
:104B10002031D7F8203193FAA3F3C7F81C31264B84
:104B20005B6A0222C7F81821D7F8182192FAA2F27C
:104B3000C7F81421D7F81421B2FA82F2D2B242F0A7
:104B40002002D2B202F01F02012101FA02F2134048
:104B5000002BAFD13B1D1B681B6803F00803002B23
:104B600000F0DA803B1D1B689B69002B69D0012394
:104B7000C7F81031D7F8103193FAA3F3C7F80C3106
:104B8000D7F80C31B3FA83F3DBB21A460B4B13445C
:104B90009B001A4601231360FCF78EFFC7F8F8014B
:104BA0000EE0FCF789FF0246D7F8F831D31A022B42
:104BB00006D90323D9E300BF0010024020819010E2
:104BC0000223C7F80831D7F8083193FAA3F3C7F8DE
:104BD000043107F5807302221A6007F580731B68A1
:104BE00093FAA3F207F1FC031A6007F1F80302221B
:104BF0001A6007F1F8031B6893FAA3F207F1F403B4
:104C00001A60A54B5A6A07F1F0030221196007F1F7
:104C1000F0031B6893FAA3F107F1EC03196007F1A5
:104C2000EC031B68B3FA83F3DBB243F06003DBB23F
:104C300003F01F03012101FA03F31340002BB0D04E
:104C40006AE007F1E80301221A6007F1E8031B6834
:104C500093FAA3F207F1E4031A6007F1E4031B6877
:104C6000B3FA83F3DBB21A468C4B13449B001A460B
:104C700000231360FCF720FFC7F8F80109E0FCF7F8
:104C80001BFF0246D7F8F831D31A022B01D90323B0
:104C90006BE307F1E00302221A6007F1E0031B68EF
:104CA00093FAA3F207F1DC031A6007F1D80302229A
:104CB0001A6007F1D8031B6893FAA3F207F1D40333
:104CC0001A6007F1D00302221A6007F1D0031B68B3
:104CD00093FAA3F207F1CC031A606F4B5A6A07F1FB
:104CE000C8030221196007F1C8031B6893FAA3F1F6
:104CF00007F1C403196007F1C4031B68B3FA83F317
:104D0000DBB243F06003DBB203F01F03012101FAC1
:104D100003F31340002BB2D13B1D1B681B6803F04B
:104D20000403002B00F05881002387F8FF315A4B11
:104D3000DB6903F08053002B12D1574BDB69564AD5
:104D400043F08053D361544BDB6903F0805207F189
:104D500008031A6007F108031B68012387F8FF3175
:104D60004F4B1B6803F48073002B1AD14C4B1B680C
:104D70004B4A43F480731360FCF79EFEC7F8F801BA
:104D800009E0FCF799FE0246D7F8F831D31A642BF4
:104D900001D90323E9E2424B1B6803F48073002B23
:104DA000EFD03B1D1B68DB68012B06D13A4B1B6A19
:104DB000394A43F0010313622FE03B1D1B68DB6897
:104DC000002B0CD1344B1B6A334A23F001031362CE
:104DD000314B1B6A304A23F0040313621DE03B1D74
:104DE0001B68DB68052B0CD12B4B1B6A2A4A43F04E
:104DF00004031362284B1B6A274A43F00103136222
:104E00000BE0254B1B6A244A23F001031362224B5B
:104E10001B6A214A23F0040313623B1D1B68DB68F5
:104E2000002B6BD0FCF748FEC7F8F8010BE0FCF74D
:104E300043FE0246D7F8F831D31A41F28832934242
:104E400001D9032391E207F1C00302221A6007F19E
:104E5000C0031B6893FAA3F207F1BC031A6007F1C1
:104E6000B80302221A6007F1B8031B6893FAA3F291
:104E700007F1B4031A6007F1B4031B68B3FA83F3B4
:104E8000DBB25B09DBB243F00203DBB2022B09D1D8
:104E9000014B1B6A14E000BF0010024020819010FB
:104EA0000070004007F1B00302221A6007F1B0035E
:104EB0001B6893FAA3F207F1AC031A60BB4B5B6A61
:104EC00007F1A8020221116007F1A802126892FA04
:104ED000A2F107F1A402116007F1A4021268B2FA6C
:104EE00082F2D2B242F04002D2B202F01F0201219D
:104EF00001FA02F21340002B99D063E0FCF7DCFDCD
:104F0000C7F8F8010BE0FCF7D7FD0246D7F8F831F7
:104F1000D31A41F28832934201D9032325E207F1E3
:104F2000A00302221A6007F1A0031B6893FAA3F200
:104F300007F19C031A6007F1980302221A6007F137
:104F400098031B6893FAA3F207F194031A6007F120
:104F500094031B68B3FA83F3DBB25B09DBB243F063
:104F60000203DBB2022B02D1904B1B6A0DE007F16A
:104F7000900302221A6007F190031B6893FAA3F2D0
:104F800007F18C031A60894B5B6A07F188020221E2
:104F9000116007F18802126892FAA2F107F1840207
:104FA000116007F184021268B2FA82F2D2B242F0C2
:104FB0004002D2B202F01F02012101FA02F21340B4
:104FC000002BA0D197F8FF31012B05D1774BDB697E
:104FD000764A23F08053D3613B1D1B68DB69002BAD
:104FE00000F0C281714B5B6803F00C03082B00F0EA
:104FF0009C813B1D1B68DB69022B40F0148107F18B
:1050000080034FF080721A6007F180031B6893FAE7
:10501000A3F207F17C031A6007F17C031B68B3FA63
:1050200083F3DBB203F1845303F584139B001A4628
:1050300000231360FCF740FDC7F8F80109E0FCF716
:105040003BFD0246D7F8F831D31A022B01D90323CE
:105050008BE107F178034FF000721A6007F17803D3
:105060001B6893FAA3F207F174031A6007F1740343
:105070001B68B3FA83F3DBB25B09DBB243F00103D5
:10508000DBB2012B02D1494B1B681BE007F1700317
:105090004FF000721A6007F170031B6893FAA3F2D5
:1050A00007F16C031A6007F168034FF000721A6091
:1050B00007F168031B6893FAA3F207F164031A600F
:1050C0003A4B5B6A07F160024FF00071116007F123
:1050D0006002126892FAA2F107F15C02116007F116
:1050E0005C021268B2FA82F2D2B242F02002D2B26C
:1050F00002F01F02012101FA02F21340002B9ED19F
:105100002A4B5B6823F474123B1D1B68596A3B1DD4
:105110001B681B6A0B43254913434B6007F1580377
:105120004FF080721A6007F158031B6893FAA3F2DC
:1051300007F154031A6007F154031B68B3FA83F3B1
:10514000DBB203F1845303F584139B001A46012359
:105150001360FCF7B1FCC7F8F80109E0FCF7ACFC00
:105160000246D7F8F831D31A022B01D90323FCE009
:1051700007F150034FF000721A6007F150031B68EB
:1051800093FAA3F207F14C031A6007F14C031B6872
:10519000B3FA83F3DBB25B09DBB243F00103DBB2AA
:1051A000012B05D1014B1B681EE000BF001002401F
:1051B00007F148034FF000721A6007F148031B68BB
:1051C00093FAA3F207F144031A6007F140034FF08A
:1051D00000721A6007F140031B6893FAA3F207F10B
:1051E0003C031A60634B5B6A07F138024FF00071B1
:1051F000116007F13802126892FAA2F107F1340245
:10520000116007F134021268B2FA82F2D2B242F0AF
:105210002002D2B202F01F02012101FA02F2134071
:10522000002B9BD0A0E007F130034FF080721A6092
:1052300007F130031B6893FAA3F207F12C031A60FD
:1052400007F12C031B68B3FA83F3DBB203F1845339
:1052500003F584139B001A4600231360FCF72CFC13
:10526000C7F8F80109E0FCF727FC0246D7F8F83147
:10527000D31A022B01D9032377E007F128034FF05B
:1052800000721A6007F128031B6893FAA3F207F172
:1052900024031A6007F124031B68B3FA83F3DBB21B
:1052A0005B09DBB243F00103DBB2012B02D1314BCE
:1052B0001B681BE007F120034FF000721A6007F132
:1052C00020031B6893FAA3F207F11C031A6007F18D
:1052D00018034FF000721A6007F118031B6893FA65
:1052E000A3F207F114031A60224B5B6A07F1100264
:1052F0004FF00071116007F11002126892FAA2F1EA
:1053000007F10C02116007F10C021268B2FA82F286
:10531000D2B242F02002D2B202F01F02012101FA01
:1053200002F21340002B9ED11EE03B1D1B68DB697F
:10533000012B01D1012318E00E4B5B68C7F8F43153
:10534000D7F8F43103F480323B1D1B681B6A9A4284
:1053500008D1D7F8F43103F470123B1D1B685B6A67
:105360009A4201D0012300E00023184607F5007798
:10537000BD4680BD0010024080B59EB000AF786091
:10538000396000237B677B68002B01D1012362E138
:10539000904B1B6803F007033A689A4210D98D4B73
:1053A0001B6823F007028B493B6813430B60894B52
:1053B0001B6803F007033A689A4201D001234AE1CF
:1053C0007B681B6803F00203002B08D0824B5B68EC
:1053D00023F0F0027B689B687F4913434B607B6836
:1053E0001B6803F00103002B00F0DC807B685B6826
:1053F000012B3CD14FF400333B673B6F93FAA3F38F
:10540000FB66FB6EB3FA83F3DBB25B09DBB243F0FE
:105410000103DBB2012B02D16F4B1B680FE04FF48D
:105420000033BB66BB6E93FAA3F37B664FF4003385
:105430003B663B6E93FAA3F3FB65674B5B6A4FF4E5
:105440000032BA65BA6D92FAA2F27A657A6DB2FA52
:1054500082F2D2B242F02002D2B202F01F02012147
:1054600001FA02F21340002B7BD10123F3E07B68A9
:105470005B68022B3CD14FF000733B653B6D93FAA8
:10548000A3F3FB64FB6CB3FA83F3DBB25B09DBB21F
:1054900043F00103DBB2012B02D14F4B1B680FE03D
:1054A0004FF00073BB64BB6C93FAA3F37B644FF0C3
:1054B00000733B643B6C93FAA3F3FB63464B5B6A5C
:1054C0004FF00072BA63BA6B92FAA2F27A637A6B07
:1054D000B2FA82F2D2B242F02002D2B202F01F023D
:1054E000012101FA02F21340002B3AD10123B2E06C
:1054F00002233B633B6B93FAA3F3FB62FB6AB3FAB1
:1055000083F3DBB25B09DBB243F00103DBB2012BB7
:1055100002D1314B1B680DE00223BB62BB6A93FAD8
:10552000A3F37B6202233B623B6A93FAA3F3FB6122
:10553000294B5B6A0222BA61BA6992FAA2F27A61D5
:105540007A69B2FA82F2D2B242F02002D2B202F00A
:105550001F02012101FA02F21340002B01D10123A5
:1055600079E01D4B5B6823F003027B685B681A4996
:1055700013434B60FCF7A0FA78670AE0FCF79CFA4B
:1055800002467B6FD31A41F28832934201D903233A
:1055900061E0114B5B6803F00C027B685B689B0069
:1055A0009A42EBD10B4B1B6803F007033A689A420F
:1055B00014D2084B1B6823F0070206493B681343CB
:1055C0000B60044B1B6803F007033A689A4205D04E
:1055D000012340E000200240001002407B681B686D
:1055E00003F00403002B08D01D4B5B6823F4E0623A
:1055F0007B68DB681A4913434B607B681B6803F0C8
:105600000803002B09D0164B5B6823F460527B68BB
:105610001B69DB00124913434B6000F029F8014677
:105620000F4B5B6803F0F003F0223A613A6992FA9B
:10563000A2F2FA60FA68B2FA82F2D2B2D340094A10
:10564000D35C21FA03F3084A1360084B1B68184621
:10565000FCF7EEF9002318467837BD4680BD00BF41
:1056600000100240E8E100080000002004000020D3
:1056700080B48BB000AF0023FB610023BB6100232B
:105680007B6200237B6100233B62294B5B68FB61EB
:10569000FB6903F00C03042B02D0082B03D03CE081
:1056A000244B3B623CE0FB6903F470134FF470122F
:1056B000BA60BA6892FAA2F27A607A68B2FA82F2B2
:1056C000D2B2D3401C4AD35C7B61194BDB6A03F036
:1056D0000F030F223A613A6992FAA2F2FA60FA686D
:1056E000B2FA82F2D2B2D340144AD35CBB61FB69F6
:1056F00003F48033002B08D00E4ABB69B2FBF3F2EF
:105700007B6902FB03F37B6204E07B690C4A02FBCA
:1057100003F37B627B6A3B6202E0064B3B6200BFA5
:105720003B6A18462C37BD465DF8047B704700BFC6
:105730000010024000127A00F8E1000808E20008B8
:1057400000093D0080B592B000AF786000233B6453
:105750000023FB63002387F847307B681B6803F452
:105760008033002B00F0D4804E4BDB6903F0805374
:10577000002B0ED14B4BDB694A4A43F08053D36177
:10578000484BDB6903F08053BB60BB68012387F89B
:105790004730454B1B6803F48073002B18D1424BF4
:1057A0001B68414A43F480731360FCF785F9386441
:1057B00008E0FCF781F902463B6CD31A642B01D94F
:1057C000032369E1384B1B6803F48073002BF0D08E
:1057D000344B1B6A03F44073FB63FB6B002B00F03C
:1057E00084807B685B6803F44073FA6B9A427CD0D8
:1057F0002C4B1B6A23F44073FB634FF480333B63F1
:105800003B6B93FAA3F3FB62FB6AB3FA83F3DBB25D
:105810001A46264B13449B001A46012313604FF48B
:105820008033BB63BB6B93FAA3F37B637B6BB3FAED
:1058300083F3DBB21A461D4B13449B001A46002328
:105840001360184AFB6B1362FB6B03F00103002B20
:105850004BD0FCF731F938640AE0FCF72DF9024629
:105860003B6CD31A41F28832934201D9032313E1EE
:105870000223BB62BB6A93FAA3F37B6202233B62FF
:105880003B6A93FAA3F3FB61FB69B3FA83F3DBB2E0
:105890005B09DBB243F00203DBB2022B08D1014B00
:1058A0001B6A0DE000100240007000400081901063
:1058B0000223BB61BB6993FAA3F37B61784B5B6AFC
:1058C00002223A613A6992FAA2F2FA60FA68B2FAEE
:1058D00082F2D2B242F04002D2B202F01F020121A3
:1058E00001FA02F21340002BB7D06D4B1B6A23F470
:1058F00040727B685B686A4913430B6297F84730D4
:10590000012B05D1664BDB69654A23F08053D361D7
:105910007B681B6803F00103002B08D0604B1B6BF6
:1059200023F003027B689B685D4913430B637B682C
:105930001B6803F00203002B08D0594B1B6B23F4A8
:1059400040327B68DB68564913430B637B681B68F6
:1059500003F00403002B08D0514B1B6B23F44022AF
:105960007B681B694E4913430B637B681B6803F01C
:105970002003002B08D04A4B1B6B23F010027B68DE
:10598000DB69474913430B637B681B6803F40033EF
:10599000002B08D0424B5B6823F480027B689B6B32
:1059A0003F4913434B607B681B6803F04003002BA7
:1059B00008D03B4B1B6B23F020027B681B6A3849E5
:1059C00013430B637B681B6803F00803002B08D0AC
:1059D000334B1B6B23F440127B685B6930491343E4
:1059E0000B637B681B6803F01003002B08D02C4B63
:1059F0001B6B23F440027B689B69294913430B63AB
:105A00007B681B6803F40073002B08D0244B5B6891
:105A100023F400027B68DB6A214913434B607B68F7
:105A20001B6803F08003002B08D01D4BDB6A23F4B6
:105A3000F8727B685B6A1A491343CB627B681B6808
:105A400003F48073002B08D0154BDB6A23F47852E3
:105A50007B689B6A12491343CB627B681B6803F423
:105A60008053002B08D00E4B1B6B23F480727B6895
:105A70001B6B0B4913430B637B681B6803F40053D8
:105A8000002B08D0064B1B6B23F400727B685B6B0A
:105A9000034913430B63002318464837BD4680BDB6
:105AA0000010024080B584B000AF78607B68002BA6
:105AB00001D101239DE07B685B6A002B08D17B68E4
:105AC0005B68B3F5827F09D07B680022DA6105E06C
:105AD0007B6800221A617B6800225A617B68002281
